{
  "contractName": "Bank",
  "abi": [
    {
      "inputs": [
        {
          "internalType": "uint256",
          "name": "_value",
          "type": "uint256"
        }
      ],
      "name": "deposit",
      "outputs": [],
      "stateMutability": "nonpayable",
      "type": "function"
    },
    {
      "inputs": [
        {
          "internalType": "uint256",
          "name": "_value",
          "type": "uint256"
        }
      ],
      "name": "withdraw",
      "outputs": [],
      "stateMutability": "nonpayable",
      "type": "function"
    },
    {
      "inputs": [],
      "name": "balance",
      "outputs": [
        {
          "internalType": "uint256",
          "name": "",
          "type": "uint256"
        }
      ],
      "stateMutability": "view",
      "type": "function"
    }
  ],
  "bytecode": "0x608060405234801561001057600080fd5b5061025c806100206000396000f3fe608060405234801561001057600080fd5b50600436106100415760003560e01c80632e1a7d4d14610046578063b69ef8a814610062578063b6b55f2514610080575b600080fd5b610060600480360381019061005b9190610116565b61009c565b005b61006a6100b7565b6040516100779190610152565b60405180910390f35b61009a60048036038101906100959190610116565b6100c0565b005b806000808282546100ad919061019c565b9250508190555050565b60008054905090565b806000808282546100d191906101d0565b9250508190555050565b600080fd5b6000819050919050565b6100f3816100e0565b81146100fe57600080fd5b50565b600081359050610110816100ea565b92915050565b60006020828403121561012c5761012b6100db565b5b600061013a84828501610101565b91505092915050565b61014c816100e0565b82525050565b60006020820190506101676000830184610143565b92915050565b7f4e487b7100000000000000000000000000000000000000000000000000000000600052601160045260246000fd5b60006101a7826100e0565b91506101b2836100e0565b9250828210156101c5576101c461016d565b5b828203905092915050565b60006101db826100e0565b91506101e6836100e0565b9250827fffffffffffffffffffffffffffffffffffffffffffffffffffffffffffffffff0382111561021b5761021a61016d565b5b82820190509291505056fea2646970667358221220ab7490e730f36acdd2214fdee94818b62b0658f4e3bb843a11c9a14fb3d8ddf864736f6c634300080f0033",
  "immutableReferences": {},
  "source": "\r\n// SPDX-License-Identifier: GPL-3.0\r\n\r\npragma solidity ^ 0.8.7  ; \r\n\r\n\r\ncontract sample3 { \r\n    \r\n    address public  owner ; \r\n\r\n    constructor() {\r\n        owner = msg.sender ; \r\n    }\r\n    modifier isOwner() { \r\n        require(owner == msg.sender, \"you are not allowd\")  ;\r\n        _;  \r\n        }\r\n\r\n\r\n    function testModifier() public isOwner { \r\n\r\n    }\r\n\r\n}\r\n\r\ncontract Bank { \r\n    uint amount ; \r\n    function deposit(uint _value) public { \r\n        amount += _value ; \r\n\r\n    }\r\n    function withdraw(uint _value) public  { \r\n        amount -= _value ; \r\n    }\r\n    function balance() public view returns (uint) { \r\n        return amount ; \r\n    }\r\n}\r\n\r\ncontract User is Bank { \r\n    constructor(uint _value) { \r\n        amount = _value ; \r\n    }\r\n\r\n    function testLib(uint a , uint b) public pure returns (uint) { \r\n       return  safeMath.sum(a, b) ; \r\n    }\r\n\r\n}\r\n\r\nlibrary safeMath {\r\n    function sum(uint a,uint b) public pure returns(uint) { \r\n        \r\n       return a + b ; \r\n    }\r\n    function div(uint a,uint b) public pure returns(uint) { \r\n        require(b!=0, \"devision by zero\") ; \r\n        return a/b ; \r\n    }\r\n    function mul(uint a, uint b) public pure returns(uint) { \r\n        return a*b ; \r\n    }\r\n    function min(uint a , uint b ) public pure returns(uint) { \r\n        return a-b ; \r\n    }\r\n   \r\n}\r\n// interface sample { \r\n// function withdraw(uint) ; \r\n// function balance() returns (uint) ; \r\n// }\r\n",
  "sourcePath": "C:\\Users\\LENOVO\\Desktop\\trufflePJ\\contracts\\modifiere.sol",
  "compiler": {
    "name": "solc",
    "version": "0.8.15+commit.e14f2714.Emscripten.clang"
  },
  "schemaVersion": "3.4.8",
  "updatedAt": "2022-07-11T10:17:03.111Z",
  "devdoc": {
    "kind": "dev",
    "methods": {},
    "version": 1
  },
  "userdoc": {
    "kind": "user",
    "methods": {},
    "version": 1
  }
}