{
  "contractName": "firstTest",
  "abi": [
    {
      "inputs": [],
      "stateMutability": "nonpayable",
      "type": "constructor"
    },
    {
      "inputs": [
        {
          "internalType": "string",
          "name": "_name",
          "type": "string"
        }
      ],
      "name": "setname",
      "outputs": [],
      "stateMutability": "nonpayable",
      "type": "function"
    },
    {
      "inputs": [],
      "name": "getName",
      "outputs": [
        {
          "internalType": "string",
          "name": "",
          "type": "string"
        }
      ],
      "stateMutability": "view",
      "type": "function"
    },
    {
      "inputs": [
        {
          "internalType": "uint256",
          "name": "a",
          "type": "uint256"
        },
        {
          "internalType": "uint256",
          "name": "b",
          "type": "uint256"
        },
        {
          "internalType": "uint256",
          "name": "c",
          "type": "uint256"
        }
      ],
      "name": "testAdd",
      "outputs": [
        {
          "internalType": "uint256",
          "name": "",
          "type": "uint256"
        }
      ],
      "stateMutability": "pure",
      "type": "function"
    },
    {
      "inputs": [
        {
          "internalType": "string",
          "name": "_input",
          "type": "string"
        }
      ],
      "name": "testHash",
      "outputs": [
        {
          "internalType": "bytes32",
          "name": "",
          "type": "bytes32"
        }
      ],
      "stateMutability": "pure",
      "type": "function"
    },
    {
      "inputs": [],
      "name": "testStruct",
      "outputs": [],
      "stateMutability": "nonpayable",
      "type": "function"
    },
    {
      "inputs": [],
      "name": "testArray",
      "outputs": [],
      "stateMutability": "nonpayable",
      "type": "function"
    },
    {
      "inputs": [],
      "name": "testMapping",
      "outputs": [],
      "stateMutability": "nonpayable",
      "type": "function"
    },
    {
      "inputs": [
        {
          "internalType": "uint256",
          "name": "_id",
          "type": "uint256"
        }
      ],
      "name": "testNestedMapping",
      "outputs": [],
      "stateMutability": "nonpayable",
      "type": "function"
    },
    {
      "inputs": [
        {
          "internalType": "uint256",
          "name": "_id",
          "type": "uint256"
        }
      ],
      "name": "testArrayMapping",
      "outputs": [],
      "stateMutability": "nonpayable",
      "type": "function"
    }
  ],
  "bytecode": "0x60806040523480156200001157600080fd5b506040518060400160405280601581526020017f534c5320426c6f636b636861696e20436f75727365000000000000000000000081525060009081620000589190620002d9565b50620003c0565b600081519050919050565b7f4e487b7100000000000000000000000000000000000000000000000000000000600052604160045260246000fd5b7f4e487b7100000000000000000000000000000000000000000000000000000000600052602260045260246000fd5b60006002820490506001821680620000e157607f821691505b602082108103620000f757620000f662000099565b5b50919050565b60008190508160005260206000209050919050565b60006020601f8301049050919050565b600082821b905092915050565b600060088302620001617fffffffffffffffffffffffffffffffffffffffffffffffffffffffffffffffff8262000122565b6200016d868362000122565b95508019841693508086168417925050509392505050565b6000819050919050565b6000819050919050565b6000620001ba620001b4620001ae8462000185565b6200018f565b62000185565b9050919050565b6000819050919050565b620001d68362000199565b620001ee620001e582620001c1565b8484546200012f565b825550505050565b600090565b62000205620001f6565b62000212818484620001cb565b505050565b5b818110156200023a576200022e600082620001fb565b60018101905062000218565b5050565b601f82111562000289576200025381620000fd565b6200025e8462000112565b810160208510156200026e578190505b620002866200027d8562000112565b83018262000217565b50505b505050565b600082821c905092915050565b6000620002ae600019846008026200028e565b1980831691505092915050565b6000620002c983836200029b565b9150826002028217905092915050565b620002e4826200005f565b67ffffffffffffffff8111156200030057620002ff6200006a565b5b6200030c8254620000c8565b620003198282856200023e565b600060209050601f8311600181146200035157600084156200033c578287015190505b620003488582620002bb565b865550620003b8565b601f1984166200036186620000fd565b60005b828110156200038b5784890151825560018201915060208501945060208101905062000364565b86831015620003ab5784890151620003a7601f8916826200029b565b8355505b6001600288020188555050505b505050505050565b610f0180620003d06000396000f3fe608060405234801561001057600080fd5b50600436106100935760003560e01c80638b547d0e116100665780638b547d0e146100f85780638ec5a309146101025780639a2e074f146101325780639b0e317c1461014e578063c4f8b9fb1461015857610093565b806317d7de7c146100985780632283bffd146100b65780632cefeb07146100c057806338cb39d6146100dc575b600080fd5b6100a0610188565b6040516100ad91906108c7565b60405180910390f35b6100be61021a565b005b6100da60048036038101906100d59190610a32565b610302565b005b6100f660048036038101906100f19190610ab1565b610315565b005b61010061043f565b005b61011c60048036038101906101179190610a32565b61050a565b6040516101299190610af7565b60405180910390f35b61014c60048036038101906101479190610ab1565b61053a565b005b61015661063c565b005b610172600480360381019061016d9190610b12565b610811565b60405161017f9190610b74565b60405180910390f35b60606000805461019790610bbe565b80601f01602080910402602001604051908101604052809291908181526020018280546101c390610bbe565b80156102105780601f106101e557610100808354040283529160200191610210565b820191906000526020600020905b8154815290600101906020018083116101f357829003601f168201915b5050505050905090565b6003600a90806001815401808255809150506001900390600052602060002001600090919091909150556003600c90806001815401808255809150506001900390600052602060002001600090919091909150556003600d9080600181540180825580915050600190039060005260206000200160009091909190915055600c60036000815481106102af576102ae610bef565b5b906000526020600020018190555060036000815481106102d2576102d1610bef565b5b906000526020600020505060036002815481106102f2576102f1610bef565b5b9060005260206000200160009055565b80600090816103119190610dca565b5050565b6103e8600660003373ffffffffffffffffffffffffffffffffffffffff1673ffffffffffffffffffffffffffffffffffffffff168152602001908152602001600020828154811061036957610368610bef565b5b9060005260206000200181905550600660003373ffffffffffffffffffffffffffffffffffffffff1673ffffffffffffffffffffffffffffffffffffffff1681526020019081526020016000206107d09080600181540180825580915050600190039060005260206000200160009091909190915055600660003373ffffffffffffffffffffffffffffffffffffffff1673ffffffffffffffffffffffffffffffffffffffff16815260200190815260200160002060028154811061043157610430610bef565b5b906000526020600020505050565b6103e8600460003373ffffffffffffffffffffffffffffffffffffffff1673ffffffffffffffffffffffffffffffffffffffff16815260200190815260200160002081905550600460003373ffffffffffffffffffffffffffffffffffffffff1673ffffffffffffffffffffffffffffffffffffffff16815260200190815260200160002060009055600460003373ffffffffffffffffffffffffffffffffffffffff1673ffffffffffffffffffffffffffffffffffffffff16815260200190815260200160002050565b60008160405160200161051d91906108c7565b604051602081830303815290604052805190602001209050919050565b6103e86005600083815260200190815260200160002060003373ffffffffffffffffffffffffffffffffffffffff1673ffffffffffffffffffffffffffffffffffffffff168152602001908152602001600020819055506103e96005600083815260200190815260200160002060003373ffffffffffffffffffffffffffffffffffffffff1673ffffffffffffffffffffffffffffffffffffffff168152602001908152602001600020819055506005600082815260200190815260200160002060003373ffffffffffffffffffffffffffffffffffffffff1673ffffffffffffffffffffffffffffffffffffffff1681526020019081526020016000205050565b600060405180604001604052806040518060400160405280600481526020017f616d6972000000000000000000000000000000000000000000000000000000008152508152602001600f81525090506040518060400160405280600581526020017f656873616e0000000000000000000000000000000000000000000000000000008152508160000181905250600160405180604001604052806040518060400160405280600381526020017f616c69000000000000000000000000000000000000000000000000000000000081525081526020016014815250908060018154018082558091505060019003906000526020600020906002020160009091909190915060008201518160000190816107549190610dca565b5060208201518160010155505060405180604001604052806040518060400160405280600581526020017f686173616e00000000000000000000000000000000000000000000000000000081525081526020016014815250600260003373ffffffffffffffffffffffffffffffffffffffff1673ffffffffffffffffffffffffffffffffffffffff16815260200190815260200160002060008201518160000190816108009190610dca565b506020820151816001015590505050565b6000818061082257610821610e9c565b5b83850890509392505050565b600081519050919050565b600082825260208201905092915050565b60005b8381101561086857808201518184015260208101905061084d565b83811115610877576000848401525b50505050565b6000601f19601f8301169050919050565b60006108998261082e565b6108a38185610839565b93506108b381856020860161084a565b6108bc8161087d565b840191505092915050565b600060208201905081810360008301526108e1818461088e565b905092915050565b6000604051905090565b600080fd5b600080fd5b600080fd5b600080fd5b7f4e487b7100000000000000000000000000000000000000000000000000000000600052604160045260246000fd5b61093f8261087d565b810181811067ffffffffffffffff8211171561095e5761095d610907565b5b80604052505050565b60006109716108e9565b905061097d8282610936565b919050565b600067ffffffffffffffff82111561099d5761099c610907565b5b6109a68261087d565b9050602081019050919050565b82818337600083830152505050565b60006109d56109d084610982565b610967565b9050828152602081018484840111156109f1576109f0610902565b5b6109fc8482856109b3565b509392505050565b600082601f830112610a1957610a186108fd565b5b8135610a298482602086016109c2565b91505092915050565b600060208284031215610a4857610a476108f3565b5b600082013567ffffffffffffffff811115610a6657610a656108f8565b5b610a7284828501610a04565b91505092915050565b6000819050919050565b610a8e81610a7b565b8114610a9957600080fd5b50565b600081359050610aab81610a85565b92915050565b600060208284031215610ac757610ac66108f3565b5b6000610ad584828501610a9c565b91505092915050565b6000819050919050565b610af181610ade565b82525050565b6000602082019050610b0c6000830184610ae8565b92915050565b600080600060608486031215610b2b57610b2a6108f3565b5b6000610b3986828701610a9c565b9350506020610b4a86828701610a9c565b9250506040610b5b86828701610a9c565b9150509250925092565b610b6e81610a7b565b82525050565b6000602082019050610b896000830184610b65565b92915050565b7f4e487b7100000000000000000000000000000000000000000000000000000000600052602260045260246000fd5b60006002820490506001821680610bd657607f821691505b602082108103610be957610be8610b8f565b5b50919050565b7f4e487b7100000000000000000000000000000000000000000000000000000000600052603260045260246000fd5b60008190508160005260206000209050919050565b60006020601f8301049050919050565b600082821b905092915050565b600060088302610c807fffffffffffffffffffffffffffffffffffffffffffffffffffffffffffffffff82610c43565b610c8a8683610c43565b95508019841693508086168417925050509392505050565b6000819050919050565b6000610cc7610cc2610cbd84610a7b565b610ca2565b610a7b565b9050919050565b6000819050919050565b610ce183610cac565b610cf5610ced82610cce565b848454610c50565b825550505050565b600090565b610d0a610cfd565b610d15818484610cd8565b505050565b5b81811015610d3957610d2e600082610d02565b600181019050610d1b565b5050565b601f821115610d7e57610d4f81610c1e565b610d5884610c33565b81016020851015610d67578190505b610d7b610d7385610c33565b830182610d1a565b50505b505050565b600082821c905092915050565b6000610da160001984600802610d83565b1980831691505092915050565b6000610dba8383610d90565b9150826002028217905092915050565b610dd38261082e565b67ffffffffffffffff811115610dec57610deb610907565b5b610df68254610bbe565b610e01828285610d3d565b600060209050601f831160018114610e345760008415610e22578287015190505b610e2c8582610dae565b865550610e94565b601f198416610e4286610c1e565b60005b82811015610e6a57848901518255600182019150602085019450602081019050610e45565b86831015610e875784890151610e83601f891682610d90565b8355505b6001600288020188555050505b505050505050565b7f4e487b7100000000000000000000000000000000000000000000000000000000600052601260045260246000fdfea2646970667358221220febda7f4848f4b702a306b8dfe309a42e69777e53059a048e8e8cb8029ecd5ad64736f6c634300080f0033",
  "immutableReferences": {},
  "source": "\r\n// SPDX-License-Identifier: GPL-3.0\r\n\r\npragma solidity ^ 0.8.7 ; \r\n\r\ncontract firstTest { \r\n    string name ; \r\n    // string storage name ; //       \r\n    // string memory name ; //\r\n    \r\n    constructor()  {\r\n        name  = \"SLS Blockchain Course\" ; \r\n    }\r\n\r\n    // constructor(string memory _test) { \r\n    //     name = _test ;\r\n    // }\r\n\r\n    function setname(string memory _name ) public { \r\n        name = _name ; \r\n    }\r\n\r\n    function getName() public view returns(string memory) { \r\n        return name ; \r\n    }\r\n\r\n    function testAdd(uint a , uint b, uint c) public pure returns (uint)  {\r\n        return addmod(a, b, c) ; \r\n    }\r\n\r\n    function testHash(string memory _input) public pure returns(bytes32) {\r\n        return keccak256(abi.encode(_input)) ; \r\n\r\n    }\r\n\r\n    struct Student { \r\n        string  name ; \r\n        uint grade ; \r\n    }\r\n\r\n\r\n    Student[] stdArray ; \r\n    mapping(address=>Student) nameAmal ;\r\n\r\n    function testStruct() public { \r\n        Student memory  st1 = Student(\"amir\",15) ;\r\n        st1.name = \"ehsan\" ; \r\n\r\n        stdArray.push(Student(\"ali\", 20)) ; \r\n        nameAmal[msg.sender] = Student(\"hasan\", 20) ;\r\n        // require(msg.value > 10 ,  \"too little ethereum\" )  ;\r\n        // assert(msg.value, \"too little money\" ) ;\r\n        // if(msg.value < 10 ether) { \r\n        //     revert() ; \r\n        // }\r\n    }\r\n\r\n    uint[] arr ; \r\n    function testArray() public { \r\n        arr.push(10) ;\r\n        arr.push(12) ;\r\n        arr.push(13) ;\r\n\r\n        arr[0] = 12 ; \r\n        arr[0] ; \r\n        delete arr[2] ; \r\n    }\r\n\r\n//     function testMemoryArray() public {\r\n//         uint[] memory array  = new uint[](5) ; \r\n//         array[0] = 10 ; \r\n//         array[1] = 20  ; \r\n//         array[2] = 30 ; \r\n//         delete array[0] ; \r\n        \r\n//    }\r\n\r\n   mapping (address=>uint ) balance ; // a ddress = value\r\n   mapping (uint=> mapping(address=> uint)) balanceList ;  // balance[iddex][address] = value\r\n    mapping (address => uint[]) balances ; \r\n   function testMapping() public { \r\n       balance[msg.sender] = 1000 ; \r\n       delete balance[msg.sender] ; \r\n       balance[msg.sender] ; \r\n\r\n   }\r\n\r\n   function testNestedMapping(uint _id) public { \r\n       balanceList[_id][msg.sender] = 1000 ;\r\n       balanceList[_id][msg.sender] = 1001 ; \r\n       balanceList[_id][msg.sender] ; \r\n\r\n   }\r\n\r\n   function testArrayMapping(uint _id) public { \r\n       balances[msg.sender][_id] = 1000 ; \r\n       balances[msg.sender].push(2000) ; \r\n       balances[msg.sender][2] ; \r\n   }\r\n\r\n}",
  "sourcePath": "C:\\Users\\LENOVO\\Desktop\\trufflePJ\\contracts\\sample2.sol",
  "compiler": {
    "name": "solc",
    "version": "0.8.15+commit.e14f2714.Emscripten.clang"
  },
  "schemaVersion": "3.4.8",
  "updatedAt": "2022-07-11T10:17:03.206Z",
  "devdoc": {
    "kind": "dev",
    "methods": {},
    "version": 1
  },
  "userdoc": {
    "kind": "user",
    "methods": {},
    "version": 1
  }
}