{
  "contractName": "nextContract",
  "abi": [
    {
      "inputs": [],
      "stateMutability": "nonpayable",
      "type": "constructor"
    },
    {
      "anonymous": false,
      "inputs": [
        {
          "indexed": false,
          "internalType": "address",
          "name": "_from",
          "type": "address"
        },
        {
          "indexed": false,
          "internalType": "address",
          "name": "_to",
          "type": "address"
        },
        {
          "indexed": false,
          "internalType": "uint256",
          "name": "_amount",
          "type": "uint256"
        }
      ],
      "name": "transfer",
      "type": "event"
    },
    {
      "inputs": [],
      "name": "owner",
      "outputs": [
        {
          "internalType": "address",
          "name": "",
          "type": "address"
        }
      ],
      "stateMutability": "view",
      "type": "function"
    },
    {
      "inputs": [
        {
          "internalType": "address payable",
          "name": "_reciever",
          "type": "address"
        },
        {
          "internalType": "uint256",
          "name": "_value",
          "type": "uint256"
        }
      ],
      "name": "transferTest",
      "outputs": [],
      "stateMutability": "nonpayable",
      "type": "function"
    },
    {
      "inputs": [],
      "name": "send",
      "outputs": [],
      "stateMutability": "payable",
      "type": "function"
    },
    {
      "inputs": [],
      "name": "getBalance",
      "outputs": [
        {
          "internalType": "uint256",
          "name": "",
          "type": "uint256"
        }
      ],
      "stateMutability": "view",
      "type": "function"
    },
    {
      "inputs": [
        {
          "internalType": "address",
          "name": "adrs",
          "type": "address"
        }
      ],
      "name": "getBalance",
      "outputs": [
        {
          "internalType": "uint256",
          "name": "",
          "type": "uint256"
        }
      ],
      "stateMutability": "view",
      "type": "function"
    },
    {
      "inputs": [
        {
          "internalType": "address payable",
          "name": "_reciever",
          "type": "address"
        },
        {
          "internalType": "uint256",
          "name": "_amount",
          "type": "uint256"
        }
      ],
      "name": "transferMoney",
      "outputs": [],
      "stateMutability": "nonpayable",
      "type": "function"
    },
    {
      "inputs": [
        {
          "internalType": "address",
          "name": "_reciever",
          "type": "address"
        },
        {
          "internalType": "uint256",
          "name": "_amount",
          "type": "uint256"
        }
      ],
      "name": "transferMoneyNew",
      "outputs": [],
      "stateMutability": "nonpayable",
      "type": "function"
    },
    {
      "inputs": [
        {
          "internalType": "uint256",
          "name": "_amount",
          "type": "uint256"
        }
      ],
      "name": "transferMoneyNew2",
      "outputs": [],
      "stateMutability": "nonpayable",
      "type": "function"
    }
  ],
  "bytecode": "0x608060405234801561001057600080fd5b50336000806101000a81548173ffffffffffffffffffffffffffffffffffffffff021916908373ffffffffffffffffffffffffffffffffffffffff16021790555061082d806100606000396000f3fe60806040526004361061007b5760003560e01c8063b46300ec1161004e578063b46300ec14610128578063b4aac43e14610132578063f8b2cb4f1461015b578063fee666ad146101985761007b565b806312065fe0146100805780632d36e224146100ab5780638448d132146100d45780638da5cb5b146100fd575b600080fd5b34801561008c57600080fd5b506100956101c1565b6040516100a2919061043f565b60405180910390f35b3480156100b757600080fd5b506100d260048036038101906100cd91906104e9565b6101c9565b005b3480156100e057600080fd5b506100fb60048036038101906100f69190610567565b6102b4565b005b34801561010957600080fd5b506101126102ff565b60405161011f91906105b6565b60405180910390f35b610130610323565b005b34801561013e57600080fd5b50610159600480360381019061015491906105d1565b610370565b005b34801561016757600080fd5b50610182600480360381019061017d91906105fe565b6103ba565b60405161018f919061043f565b60405180910390f35b3480156101a457600080fd5b506101bf60048036038101906101ba91906104e9565b6103db565b005b600047905090565b80600160003373ffffffffffffffffffffffffffffffffffffffff1673ffffffffffffffffffffffffffffffffffffffff1681526020019081526020016000206000828254610218919061065a565b9250508190555080600160008473ffffffffffffffffffffffffffffffffffffffff1673ffffffffffffffffffffffffffffffffffffffff168152602001908152602001600020600082825461026e919061068e565b925050819055507fbeabacc8ffedac16e9a60acdb2ca743d80c2ebb44977a93fa8e483c74d2b35a83383836040516102a893929190610743565b60405180910390a15050565b8173ffffffffffffffffffffffffffffffffffffffff166108fc829081150290604051600060405180830381858888f193505050501580156102fa573d6000803e3d6000fd5b505050565b60008054906101000a900473ffffffffffffffffffffffffffffffffffffffff1681565b671bc16d674ec8000034101561036e576040517f08c379a0000000000000000000000000000000000000000000000000000000008152600401610365906107d7565b60405180910390fd5b565b3373ffffffffffffffffffffffffffffffffffffffff166108fc829081150290604051600060405180830381858888f193505050501580156103b6573d6000803e3d6000fd5b5050565b60008173ffffffffffffffffffffffffffffffffffffffff16319050919050565b8173ffffffffffffffffffffffffffffffffffffffff166108fc829081150290604051600060405180830381858888f19350505050158015610421573d6000803e3d6000fd5b505050565b6000819050919050565b61043981610426565b82525050565b60006020820190506104546000830184610430565b92915050565b600080fd5b600073ffffffffffffffffffffffffffffffffffffffff82169050919050565b600061048a8261045f565b9050919050565b61049a8161047f565b81146104a557600080fd5b50565b6000813590506104b781610491565b92915050565b6104c681610426565b81146104d157600080fd5b50565b6000813590506104e3816104bd565b92915050565b60008060408385031215610500576104ff61045a565b5b600061050e858286016104a8565b925050602061051f858286016104d4565b9150509250929050565b60006105348261045f565b9050919050565b61054481610529565b811461054f57600080fd5b50565b6000813590506105618161053b565b92915050565b6000806040838503121561057e5761057d61045a565b5b600061058c85828601610552565b925050602061059d858286016104d4565b9150509250929050565b6105b081610529565b82525050565b60006020820190506105cb60008301846105a7565b92915050565b6000602082840312156105e7576105e661045a565b5b60006105f5848285016104d4565b91505092915050565b6000602082840312156106145761061361045a565b5b600061062284828501610552565b91505092915050565b7f4e487b7100000000000000000000000000000000000000000000000000000000600052601160045260246000fd5b600061066582610426565b915061067083610426565b9250828210156106835761068261062b565b5b828203905092915050565b600061069982610426565b91506106a483610426565b9250827fffffffffffffffffffffffffffffffffffffffffffffffffffffffffffffffff038211156106d9576106d861062b565b5b828201905092915050565b6000819050919050565b60006107096107046106ff8461045f565b6106e4565b61045f565b9050919050565b600061071b826106ee565b9050919050565b600061072d82610710565b9050919050565b61073d81610722565b82525050565b600060608201905061075860008301866105a7565b6107656020830185610734565b6107726040830184610430565b949350505050565b600082825260208201905092915050565b7f746f6f206c6974746c65206d6f6e657921000000000000000000000000000000600082015250565b60006107c160118361077a565b91506107cc8261078b565b602082019050919050565b600060208201905081810360008301526107f0816107b4565b905091905056fea26469706673582212205a6ac72bc086800bd90e659e87408eb1a09b2171cada9d1dd4f55f4e2c01c0e464736f6c634300080f0033",
  "immutableReferences": {},
  "source": "\r\n// SPDX-License-Identifier: GPL-3.0\r\n\r\npragma solidity ^ 0.8.7  ; \r\n\r\ncontract nextContract { \r\n\r\n     address public  owner ; \r\n    constructor() { \r\n        owner = msg.sender ; \r\n    }\r\n\r\n\r\n    event transfer(address _from, address _to , uint _amount) ; \r\n    mapping (address => uint) balance ; \r\n    \r\n   \r\n    modifier isOwner() { \r\n        require(owner == msg.sender, \"you are not allowd\")  ;\r\n        _;  \r\n        }\r\n    \r\n    \r\n    \r\n    function transferTest(address payable _reciever, uint _value) public { \r\nbalance[msg.sender] -= _value ; \r\nbalance[_reciever] += _value ; \r\nemit transfer(msg.sender, _reciever, _value) ;\r\n    }\r\n\r\n\r\n\r\n    function send() public payable {\r\n    \r\n        if(msg.value < 2 ether)\r\n    {\r\n        revert(\"too little money!\") ; \r\n    }\r\n    \r\n    }\r\n\r\n\r\n    function getBalance() public view returns(uint) { \r\n        return address(this).balance ; \r\n    }\r\n    function getBalance(address adrs) public view returns (uint) { \r\n        return adrs.balance ; \r\n    }\r\n\r\n\r\n    function transferMoney(address payable _reciever, uint _amount) public { \r\n        _reciever.transfer(_amount) ;\r\n    }\r\n\r\n    function transferMoneyNew(address _reciever, uint _amount) public {\r\n        \r\n        payable(_reciever).transfer(_amount);\r\n    }\r\n\r\n    function transferMoneyNew2(uint _amount) public {\r\n        \r\n        payable(msg.sender).transfer(_amount);\r\n    }\r\n\r\n\r\n}\r\n\r\n",
  "sourcePath": "C:\\Users\\LENOVO\\Desktop\\trufflePJ\\contracts\\sls2_section3.sol",
  "compiler": {
    "name": "solc",
    "version": "0.8.15+commit.e14f2714.Emscripten.clang"
  },
  "schemaVersion": "3.4.8",
  "updatedAt": "2022-07-11T10:17:03.220Z",
  "devdoc": {
    "kind": "dev",
    "methods": {},
    "version": 1
  },
  "userdoc": {
    "kind": "user",
    "methods": {},
    "version": 1
  }
}