{
  "contractName": "safeMath",
  "abi": [
    {
      "inputs": [
        {
          "internalType": "uint256",
          "name": "a",
          "type": "uint256"
        },
        {
          "internalType": "uint256",
          "name": "b",
          "type": "uint256"
        }
      ],
      "name": "sum",
      "outputs": [
        {
          "internalType": "uint256",
          "name": "",
          "type": "uint256"
        }
      ],
      "stateMutability": "pure",
      "type": "function"
    },
    {
      "inputs": [
        {
          "internalType": "uint256",
          "name": "a",
          "type": "uint256"
        },
        {
          "internalType": "uint256",
          "name": "b",
          "type": "uint256"
        }
      ],
      "name": "div",
      "outputs": [
        {
          "internalType": "uint256",
          "name": "",
          "type": "uint256"
        }
      ],
      "stateMutability": "pure",
      "type": "function"
    },
    {
      "inputs": [
        {
          "internalType": "uint256",
          "name": "a",
          "type": "uint256"
        },
        {
          "internalType": "uint256",
          "name": "b",
          "type": "uint256"
        }
      ],
      "name": "mul",
      "outputs": [
        {
          "internalType": "uint256",
          "name": "",
          "type": "uint256"
        }
      ],
      "stateMutability": "pure",
      "type": "function"
    },
    {
      "inputs": [
        {
          "internalType": "uint256",
          "name": "a",
          "type": "uint256"
        },
        {
          "internalType": "uint256",
          "name": "b",
          "type": "uint256"
        }
      ],
      "name": "min",
      "outputs": [
        {
          "internalType": "uint256",
          "name": "",
          "type": "uint256"
        }
      ],
      "stateMutability": "pure",
      "type": "function"
    }
  ],
  "bytecode": "0x610480610053600b82828239805160001a607314610046577f4e487b7100000000000000000000000000000000000000000000000000000000600052600060045260246000fd5b30600052607381538281f3fe73000000000000000000000000000000000000000030146080604052600436106100565760003560e01c80637ae2b5c71461005b578063a391c15b1461008b578063c8a4ac9c146100bb578063cad0899b146100eb575b600080fd5b610075600480360381019061007091906101f0565b61011b565b604051610082919061023f565b60405180910390f35b6100a560048036038101906100a091906101f0565b610131565b6040516100b2919061023f565b60405180910390f35b6100d560048036038101906100d091906101f0565b610189565b6040516100e2919061023f565b60405180910390f35b610105600480360381019061010091906101f0565b61019f565b604051610112919061023f565b60405180910390f35b600081836101299190610289565b905092915050565b6000808203610175576040517f08c379a000000000000000000000000000000000000000000000000000000000815260040161016c9061031a565b60405180910390fd5b81836101819190610369565b905092915050565b60008183610197919061039a565b905092915050565b600081836101ad91906103f4565b905092915050565b600080fd5b6000819050919050565b6101cd816101ba565b81146101d857600080fd5b50565b6000813590506101ea816101c4565b92915050565b60008060408385031215610207576102066101b5565b5b6000610215858286016101db565b9250506020610226858286016101db565b9150509250929050565b610239816101ba565b82525050565b60006020820190506102546000830184610230565b92915050565b7f4e487b7100000000000000000000000000000000000000000000000000000000600052601160045260246000fd5b6000610294826101ba565b915061029f836101ba565b9250828210156102b2576102b161025a565b5b828203905092915050565b600082825260208201905092915050565b7f6465766973696f6e206279207a65726f00000000000000000000000000000000600082015250565b60006103046010836102bd565b915061030f826102ce565b602082019050919050565b60006020820190508181036000830152610333816102f7565b9050919050565b7f4e487b7100000000000000000000000000000000000000000000000000000000600052601260045260246000fd5b6000610374826101ba565b915061037f836101ba565b92508261038f5761038e61033a565b5b828204905092915050565b60006103a5826101ba565b91506103b0836101ba565b9250817fffffffffffffffffffffffffffffffffffffffffffffffffffffffffffffffff04831182151516156103e9576103e861025a565b5b828202905092915050565b60006103ff826101ba565b915061040a836101ba565b9250827fffffffffffffffffffffffffffffffffffffffffffffffffffffffffffffffff0382111561043f5761043e61025a565b5b82820190509291505056fea26469706673582212206de1b4fdc8c7d4e2bab798386f7ecf962e000504b9cf6858a1b9f98ea429c75d64736f6c634300080f0033",
  "immutableReferences": {},
  "source": "\r\n// SPDX-License-Identifier: GPL-3.0\r\n\r\npragma solidity ^ 0.8.7  ; \r\n\r\n\r\ncontract sample3 { \r\n    \r\n    address public  owner ; \r\n\r\n    constructor() {\r\n        owner = msg.sender ; \r\n    }\r\n    modifier isOwner() { \r\n        require(owner == msg.sender, \"you are not allowd\")  ;\r\n        _;  \r\n        }\r\n\r\n\r\n    function testModifier() public isOwner { \r\n\r\n    }\r\n\r\n}\r\n\r\ncontract Bank { \r\n    uint amount ; \r\n    function deposit(uint _value) public { \r\n        amount += _value ; \r\n\r\n    }\r\n    function withdraw(uint _value) public  { \r\n        amount -= _value ; \r\n    }\r\n    function balance() public view returns (uint) { \r\n        return amount ; \r\n    }\r\n}\r\n\r\ncontract User is Bank { \r\n    constructor(uint _value) { \r\n        amount = _value ; \r\n    }\r\n\r\n    function testLib(uint a , uint b) public pure returns (uint) { \r\n       return  safeMath.sum(a, b) ; \r\n    }\r\n\r\n}\r\n\r\nlibrary safeMath {\r\n    function sum(uint a,uint b) public pure returns(uint) { \r\n        \r\n       return a + b ; \r\n    }\r\n    function div(uint a,uint b) public pure returns(uint) { \r\n        require(b!=0, \"devision by zero\") ; \r\n        return a/b ; \r\n    }\r\n    function mul(uint a, uint b) public pure returns(uint) { \r\n        return a*b ; \r\n    }\r\n    function min(uint a , uint b ) public pure returns(uint) { \r\n        return a-b ; \r\n    }\r\n   \r\n}\r\n// interface sample { \r\n// function withdraw(uint) ; \r\n// function balance() returns (uint) ; \r\n// }\r\n",
  "sourcePath": "C:\\Users\\LENOVO\\Desktop\\trufflePJ\\contracts\\modifiere.sol",
  "compiler": {
    "name": "solc",
    "version": "0.8.15+commit.e14f2714.Emscripten.clang"
  },
  "schemaVersion": "3.4.8",
  "updatedAt": "2022-07-11T10:17:03.152Z",
  "devdoc": {
    "kind": "dev",
    "methods": {},
    "version": 1
  },
  "userdoc": {
    "kind": "user",
    "methods": {},
    "version": 1
  }
}