{
  "contractName": "SolidityTest",
  "abi": [
    {
      "inputs": [],
      "name": "name",
      "outputs": [
        {
          "internalType": "string",
          "name": "",
          "type": "string"
        }
      ],
      "stateMutability": "view",
      "type": "function"
    },
    {
      "inputs": [],
      "name": "test",
      "outputs": [],
      "stateMutability": "nonpayable",
      "type": "function"
    },
    {
      "inputs": [],
      "name": "test2",
      "outputs": [],
      "stateMutability": "payable",
      "type": "function"
    }
  ],
  "bytecode": "0x608060405234801561001057600080fd5b50610268806100206000396000f3fe6080604052600436106100345760003560e01c806306fdde031461003957806366e41cb714610064578063f8a8fd6d1461006e575b600080fd5b34801561004557600080fd5b5061004e610085565b60405161005b91906101b0565b60405180910390f35b61006c610113565b005b34801561007a57600080fd5b50610083610115565b005b6000805461009290610201565b80601f01602080910402602001604051908101604052809291908181526020018280546100be90610201565b801561010b5780601f106100e05761010080835404028352916020019161010b565b820191906000526020600020905b8154815290600101906020018083116100ee57829003601f168201915b505050505081565b565b565b600081519050919050565b600082825260208201905092915050565b60005b83811015610151578082015181840152602081019050610136565b83811115610160576000848401525b50505050565b6000601f19601f8301169050919050565b600061018282610117565b61018c8185610122565b935061019c818560208601610133565b6101a581610166565b840191505092915050565b600060208201905081810360008301526101ca8184610177565b905092915050565b7f4e487b7100000000000000000000000000000000000000000000000000000000600052602260045260246000fd5b6000600282049050600182168061021957607f821691505b60208210810361022c5761022b6101d2565b5b5091905056fea2646970667358221220f069660a1ec6594fdc723a05028e2fe21efeb823db7c9cd2ecbe0277b869158764736f6c634300080f0033",
  "immutableReferences": {},
  "source": "\r\n// SPDX-License-Identifier: GPL-3.0\r\n\r\npragma solidity ^ 0.8.0 ; \r\n \r\ncontract SolidityTest { \r\n\r\n   string public name ; \r\n   function test() public {\r\n\r\n   }\r\n\r\n   function test2() payable public {\r\n\r\n   }\r\n\r\n}",
  "sourcePath": "C:\\Users\\LENOVO\\Desktop\\trufflePJ\\contracts\\sample.sol",
  "compiler": {
    "name": "solc",
    "version": "0.8.15+commit.e14f2714.Emscripten.clang"
  },
  "schemaVersion": "3.4.8",
  "updatedAt": "2022-07-11T10:17:03.165Z",
  "devdoc": {
    "kind": "dev",
    "methods": {},
    "version": 1
  },
  "userdoc": {
    "kind": "user",
    "methods": {},
    "version": 1
  }
}