{
  "contractName": "User",
  "abi": [
    {
      "inputs": [
        {
          "internalType": "uint256",
          "name": "_value",
          "type": "uint256"
        }
      ],
      "stateMutability": "nonpayable",
      "type": "constructor"
    },
    {
      "inputs": [],
      "name": "balance",
      "outputs": [
        {
          "internalType": "uint256",
          "name": "",
          "type": "uint256"
        }
      ],
      "stateMutability": "view",
      "type": "function"
    },
    {
      "inputs": [
        {
          "internalType": "uint256",
          "name": "_value",
          "type": "uint256"
        }
      ],
      "name": "deposit",
      "outputs": [],
      "stateMutability": "nonpayable",
      "type": "function"
    },
    {
      "inputs": [
        {
          "internalType": "uint256",
          "name": "_value",
          "type": "uint256"
        }
      ],
      "name": "withdraw",
      "outputs": [],
      "stateMutability": "nonpayable",
      "type": "function"
    },
    {
      "inputs": [
        {
          "internalType": "uint256",
          "name": "a",
          "type": "uint256"
        },
        {
          "internalType": "uint256",
          "name": "b",
          "type": "uint256"
        }
      ],
      "name": "testLib",
      "outputs": [
        {
          "internalType": "uint256",
          "name": "",
          "type": "uint256"
        }
      ],
      "stateMutability": "pure",
      "type": "function"
    }
  ],
  "bytecode": "0x608060405234801561001057600080fd5b5060405161048b38038061048b8339818101604052810190610032919061007a565b80600081905550506100a7565b600080fd5b6000819050919050565b61005781610044565b811461006257600080fd5b50565b6000815190506100748161004e565b92915050565b6000602082840312156100905761008f61003f565b5b600061009e84828501610065565b91505092915050565b6103d5806100b66000396000f3fe608060405234801561001057600080fd5b506004361061004c5760003560e01c80632e1a7d4d146100515780636d3be7c11461006d578063b69ef8a81461009d578063b6b55f25146100bb575b600080fd5b61006b600480360381019061006691906101d5565b6100d7565b005b61008760048036038101906100829190610202565b6100f2565b6040516100949190610251565b60405180910390f35b6100a5610176565b6040516100b29190610251565b60405180910390f35b6100d560048036038101906100d091906101d5565b61017f565b005b806000808282546100e8919061029b565b9250508190555050565b600073__safeMath______________________________63cad0899b84846040518363ffffffff1660e01b815260040161012d9291906102de565b602060405180830381865af415801561014a573d6000803e3d6000fd5b505050506040513d601f19601f8201168201806040525081019061016e919061031c565b905092915050565b60008054905090565b806000808282546101909190610349565b9250508190555050565b600080fd5b6000819050919050565b6101b28161019f565b81146101bd57600080fd5b50565b6000813590506101cf816101a9565b92915050565b6000602082840312156101eb576101ea61019a565b5b60006101f9848285016101c0565b91505092915050565b600080604083850312156102195761021861019a565b5b6000610227858286016101c0565b9250506020610238858286016101c0565b9150509250929050565b61024b8161019f565b82525050565b60006020820190506102666000830184610242565b92915050565b7f4e487b7100000000000000000000000000000000000000000000000000000000600052601160045260246000fd5b60006102a68261019f565b91506102b18361019f565b9250828210156102c4576102c361026c565b5b828203905092915050565b6102d88161019f565b82525050565b60006040820190506102f360008301856102cf565b61030060208301846102cf565b9392505050565b600081519050610316816101a9565b92915050565b6000602082840312156103325761033161019a565b5b600061034084828501610307565b91505092915050565b60006103548261019f565b915061035f8361019f565b9250827fffffffffffffffffffffffffffffffffffffffffffffffffffffffffffffffff038211156103945761039361026c565b5b82820190509291505056fea264697066735822122027935a29fc46dc68f53b0b6da287116af325740d17c0c18476c50c28bd698ccd64736f6c634300080f0033",
  "immutableReferences": {},
  "source": "\r\n// SPDX-License-Identifier: GPL-3.0\r\n\r\npragma solidity ^ 0.8.7  ; \r\n\r\n\r\ncontract sample3 { \r\n    \r\n    address public  owner ; \r\n\r\n    constructor() {\r\n        owner = msg.sender ; \r\n    }\r\n    modifier isOwner() { \r\n        require(owner == msg.sender, \"you are not allowd\")  ;\r\n        _;  \r\n        }\r\n\r\n\r\n    function testModifier() public isOwner { \r\n\r\n    }\r\n\r\n}\r\n\r\ncontract Bank { \r\n    uint amount ; \r\n    function deposit(uint _value) public { \r\n        amount += _value ; \r\n\r\n    }\r\n    function withdraw(uint _value) public  { \r\n        amount -= _value ; \r\n    }\r\n    function balance() public view returns (uint) { \r\n        return amount ; \r\n    }\r\n}\r\n\r\ncontract User is Bank { \r\n    constructor(uint _value) { \r\n        amount = _value ; \r\n    }\r\n\r\n    function testLib(uint a , uint b) public pure returns (uint) { \r\n       return  safeMath.sum(a, b) ; \r\n    }\r\n\r\n}\r\n\r\nlibrary safeMath {\r\n    function sum(uint a,uint b) public pure returns(uint) { \r\n        \r\n       return a + b ; \r\n    }\r\n    function div(uint a,uint b) public pure returns(uint) { \r\n        require(b!=0, \"devision by zero\") ; \r\n        return a/b ; \r\n    }\r\n    function mul(uint a, uint b) public pure returns(uint) { \r\n        return a*b ; \r\n    }\r\n    function min(uint a , uint b ) public pure returns(uint) { \r\n        return a-b ; \r\n    }\r\n   \r\n}\r\n// interface sample { \r\n// function withdraw(uint) ; \r\n// function balance() returns (uint) ; \r\n// }\r\n",
  "sourcePath": "C:\\Users\\LENOVO\\Desktop\\trufflePJ\\contracts\\modifiere.sol",
  "compiler": {
    "name": "solc",
    "version": "0.8.15+commit.e14f2714.Emscripten.clang"
  },
  "schemaVersion": "3.4.8",
  "updatedAt": "2022-07-11T10:17:03.122Z",
  "devdoc": {
    "kind": "dev",
    "methods": {},
    "version": 1
  },
  "userdoc": {
    "kind": "user",
    "methods": {},
    "version": 1
  }
}